{
  "contractName": "ReportCard",
  "abi": [
    {
      "constant": false,
      "inputs": [],
      "name": "getReportCardBalance",
      "outputs": [
        {
          "name": "ret",
          "type": "uint256"
        }
      ],
      "payable": false,
      "stateMutability": "nonpayable",
      "type": "function"
    },
    {
      "constant": true,
      "inputs": [],
      "name": "stud",
      "outputs": [
        {
          "name": "student",
          "type": "address"
        },
        {
          "name": "studentName",
          "type": "string"
        }
      ],
      "payable": false,
      "stateMutability": "view",
      "type": "function"
    },
    {
      "constant": false,
      "inputs": [],
      "name": "getGPAGoal",
      "outputs": [
        {
          "name": "ret",
          "type": "uint256"
        }
      ],
      "payable": false,
      "stateMutability": "nonpayable",
      "type": "function"
    },
    {
      "constant": false,
      "inputs": [],
      "name": "getStudentAddress",
      "outputs": [
        {
          "name": "ret",
          "type": "address"
        }
      ],
      "payable": false,
      "stateMutability": "nonpayable",
      "type": "function"
    },
    {
      "constant": false,
      "inputs": [],
      "name": "getReward",
      "outputs": [],
      "payable": false,
      "stateMutability": "nonpayable",
      "type": "function"
    },
    {
      "constant": true,
      "inputs": [],
      "name": "parent",
      "outputs": [
        {
          "name": "",
          "type": "address"
        }
      ],
      "payable": false,
      "stateMutability": "view",
      "type": "function"
    },
    {
      "constant": true,
      "inputs": [],
      "name": "gpaGoal",
      "outputs": [
        {
          "name": "",
          "type": "uint256"
        }
      ],
      "payable": false,
      "stateMutability": "view",
      "type": "function"
    },
    {
      "constant": true,
      "inputs": [],
      "name": "submitted",
      "outputs": [
        {
          "name": "",
          "type": "bool"
        }
      ],
      "payable": false,
      "stateMutability": "view",
      "type": "function"
    },
    {
      "constant": false,
      "inputs": [
        {
          "name": "_teacher",
          "type": "address"
        }
      ],
      "name": "assignTeacher",
      "outputs": [],
      "payable": false,
      "stateMutability": "nonpayable",
      "type": "function"
    },
    {
      "constant": false,
      "inputs": [
        {
          "name": "_gpa",
          "type": "uint256"
        }
      ],
      "name": "setGPA",
      "outputs": [],
      "payable": false,
      "stateMutability": "nonpayable",
      "type": "function"
    },
    {
      "constant": false,
      "inputs": [],
      "name": "getGPA",
      "outputs": [
        {
          "name": "ret",
          "type": "uint256"
        }
      ],
      "payable": false,
      "stateMutability": "nonpayable",
      "type": "function"
    },
    {
      "constant": false,
      "inputs": [],
      "name": "giveRefund",
      "outputs": [],
      "payable": false,
      "stateMutability": "nonpayable",
      "type": "function"
    },
    {
      "constant": false,
      "inputs": [],
      "name": "contribute",
      "outputs": [],
      "payable": true,
      "stateMutability": "payable",
      "type": "function"
    },
    {
      "constant": false,
      "inputs": [
        {
          "name": "school",
          "type": "address"
        },
        {
          "name": "name",
          "type": "string"
        }
      ],
      "name": "enroll",
      "outputs": [],
      "payable": false,
      "stateMutability": "nonpayable",
      "type": "function"
    },
    {
      "constant": false,
      "inputs": [],
      "name": "getStudentName",
      "outputs": [
        {
          "name": "ret",
          "type": "string"
        }
      ],
      "payable": false,
      "stateMutability": "nonpayable",
      "type": "function"
    },
    {
      "constant": false,
      "inputs": [
        {
          "name": "ad",
          "type": "address"
        }
      ],
      "name": "getBalance",
      "outputs": [
        {
          "name": "ret",
          "type": "uint256"
        }
      ],
      "payable": false,
      "stateMutability": "nonpayable",
      "type": "function"
    },
    {
      "constant": false,
      "inputs": [
        {
          "name": "_gpa",
          "type": "uint256"
        }
      ],
      "name": "setGPAGoal",
      "outputs": [],
      "payable": false,
      "stateMutability": "nonpayable",
      "type": "function"
    },
    {
      "inputs": [
        {
          "name": "stu",
          "type": "address"
        },
        {
          "name": "name",
          "type": "string"
        }
      ],
      "payable": true,
      "stateMutability": "payable",
      "type": "constructor"
    },
    {
      "anonymous": false,
      "inputs": [
        {
          "indexed": false,
          "name": "rd",
          "type": "string"
        }
      ],
      "name": "RewardDisbursement",
      "type": "event"
    }
  ],
  "bytecode": "0x6060604052604051610d67380380610d678339810160405280805190602001909190805182019190505033600360006101000a81548173ffffffffffffffffffffffffffffffffffffffff021916908373ffffffffffffffffffffffffffffffffffffffff16021790555060408051908101604052808373ffffffffffffffffffffffffffffffffffffffff168152602001828152506000808201518160000160006101000a81548173ffffffffffffffffffffffffffffffffffffffff021916908373ffffffffffffffffffffffffffffffffffffffff16021790555060208201518160010190805190602001906100f9929190610104565b5090505050506101a9565b828054600181600116156101000203166002900490600052602060002090601f016020900481019282601f1061014557805160ff1916838001178555610173565b82800160010185558215610173579182015b82811115610172578251825591602001919060010190610157565b5b5090506101809190610184565b5090565b6101a691905b808211156101a257600081600090555060010161018a565b5090565b90565b610baf806101b86000396000f3006060604052600436106100f1576000357c0100000000000000000000000000000000000000000000000000000000900463ffffffff1680632e4ee382146100f6578063386358d41461011f5780633b3a2c0b146101fd5780633c732815146102265780633d18b9121461027b57806360f96a8f146102905780636f6fee91146102e5578063708ddf7b1461030e57806370f409e11461033b57806371b6b69014610374578063797a9b6014610397578063c71911ce146103c0578063d7bb99ba146103d5578063d96a4592146103df578063e291d69f1461045b578063f8b2cb4f146104e9578063fccdb9cb14610536575b600080fd5b341561010157600080fd5b610109610559565b6040518082815260200191505060405180910390f35b341561012a57600080fd5b610132610578565b604051808373ffffffffffffffffffffffffffffffffffffffff1673ffffffffffffffffffffffffffffffffffffffff168152602001806020018281038252838181546001816001161561010002031660029004815260200191508054600181600116156101000203166002900480156101ed5780601f106101c2576101008083540402835291602001916101ed565b820191906000526020600020905b8154815290600101906020018083116101d057829003601f168201915b5050935050505060405180910390f35b341561020857600080fd5b6102106105a9565b6040518082815260200191505060405180910390f35b341561023157600080fd5b6102396105b3565b604051808273ffffffffffffffffffffffffffffffffffffffff1673ffffffffffffffffffffffffffffffffffffffff16815260200191505060405180910390f35b341561028657600080fd5b61028e6105df565b005b341561029b57600080fd5b6102a3610718565b604051808273ffffffffffffffffffffffffffffffffffffffff1673ffffffffffffffffffffffffffffffffffffffff16815260200191505060405180910390f35b34156102f057600080fd5b6102f861073e565b6040518082815260200191505060405180910390f35b341561031957600080fd5b610321610744565b604051808215151515815260200191505060405180910390f35b341561034657600080fd5b610372600480803573ffffffffffffffffffffffffffffffffffffffff16906020019091905050610757565b005b341561037f57600080fd5b610395600480803590602001909190505061079b565b005b34156103a257600080fd5b6103aa6107c0565b6040518082815260200191505060405180910390f35b34156103cb57600080fd5b6103d36107ca565b005b6103dd610903565b005b34156103ea57600080fd5b610459600480803573ffffffffffffffffffffffffffffffffffffffff1690602001909190803590602001908201803590602001908080601f01602080910402602001604051908101604052809392919081815260200183838082843782019150505050505091905050610952565b005b341561046657600080fd5b61046e610a71565b6040518080602001828103825283818151815260200191508051906020019080838360005b838110156104ae578082015181840152602081019050610493565b50505050905090810190601f1680156104db5780820380516001836020036101000a031916815260200191505b509250505060405180910390f35b34156104f457600080fd5b610520600480803573ffffffffffffffffffffffffffffffffffffffff16906020019091905050610b1c565b6040518082815260200191505060405180910390f35b341561054157600080fd5b6105576004808035906020019091905050610b65565b005b60003073ffffffffffffffffffffffffffffffffffffffff1631905090565b60008060000160009054906101000a900473ffffffffffffffffffffffffffffffffffffffff169080600101905082565b6000600554905090565b60008060000160009054906101000a900473ffffffffffffffffffffffffffffffffffffffff16905090565b600554600454101580156105ff5750600660009054906101000a900460ff165b156106ec576000800160009054906101000a900473ffffffffffffffffffffffffffffffffffffffff1673ffffffffffffffffffffffffffffffffffffffff166108fc3073ffffffffffffffffffffffffffffffffffffffff16319081150290604051600060405180830381858888f19350505050151561067f57600080fd5b7ffe794b5c05e7bc6c9231646e1677c81a2193ae3095eec90645e827765b2eed3d60405180806020018281038252600a8152602001807f41776172642073656e740000000000000000000000000000000000000000000081525060200191505060405180910390a1610716565b60055460045410801561070b5750600660009054906101000a900460ff165b1561071557610716565b5b565b600360009054906101000a900473ffffffffffffffffffffffffffffffffffffffff1681565b60055481565b600660009054906101000a900460ff1681565b80600260006101000a81548173ffffffffffffffffffffffffffffffffffffffff021916908373ffffffffffffffffffffffffffffffffffffffff16021790555050565b806004819055506001600660006101000a81548160ff02191690831515021790555050565b6000600454905090565b60006005546004541080156107eb5750600660009054906101000a900460ff165b156108ff57600090505b6007548160ff1610156108fa57600860008260ff16815260200190815260200160002060009054906101000a900473ffffffffffffffffffffffffffffffffffffffff1673ffffffffffffffffffffffffffffffffffffffff166108fc60096000600860008660ff16815260200190815260200160002060009054906101000a900473ffffffffffffffffffffffffffffffffffffffff1673ffffffffffffffffffffffffffffffffffffffff1673ffffffffffffffffffffffffffffffffffffffff168152602001908152602001600020549081150290604051600060405180830381858888f1935050505015156108ed57600080fd5b80806001019150506107f5565b610900565b5b50565b34600960003373ffffffffffffffffffffffffffffffffffffffff1673ffffffffffffffffffffffffffffffffffffffff16815260200190815260200160002060008282540192505081905550565b8173ffffffffffffffffffffffffffffffffffffffff1663ae0eb83c82306040518363ffffffff167c010000000000000000000000000000000000000000000000000000000002815260040180806020018373ffffffffffffffffffffffffffffffffffffffff1673ffffffffffffffffffffffffffffffffffffffff168152602001828103825284818151815260200191508051906020019080838360005b83811015610a0d5780820151818401526020810190506109f2565b50505050905090810190601f168015610a3a5780820380516001836020036101000a031916815260200191505b509350505050600060405180830381600087803b1515610a5957600080fd5b6102c65a03f11515610a6a57600080fd5b5050505050565b610a79610b6f565b60006001018054600181600116156101000203166002900480601f016020809104026020016040519081016040528092919081815260200182805460018160011615610100020316600290048015610b125780601f10610ae757610100808354040283529160200191610b12565b820191906000526020600020905b815481529060010190602001808311610af557829003601f168201915b5050505050905090565b6000600960008373ffffffffffffffffffffffffffffffffffffffff1673ffffffffffffffffffffffffffffffffffffffff168152602001908152602001600020549050919050565b8060058190555050565b6020604051908101604052806000815250905600a165627a7a7230582023a09e2f9be0e348a28ecabe6bb25440bb97a013696b1fac27dcc8d564481a690029",
  "source": "pragma solidity ^0.4.2;\r\nimport \"./School.sol\";\r\ncontract ReportCard {\r\n\r\n    //address public student;         //address to remit proceeds to if goal is met\r\n\r\n    struct StudentStruct {\r\n      address student;\r\n      string studentName;\r\n    }\r\n\r\n    StudentStruct public stud;\r\n\r\n    address teacher;                //address that submits grades\r\n    address public parent;                 //address of parent\r\n    uint gpa;                       //gpa acheived\r\n    uint public gpaGoal;            //gpa goal\r\n    bool public submitted;          //has teacher submitted grades\r\n\r\n    uint numContributors;\r\n    mapping (uint => address) contributors;\r\n    mapping (address => uint) balances;\r\n\r\n    event RewardDisbursement (string rd);\r\n\r\n    function ReportCard  (address stu, string name) payable {\r\n        parent = msg.sender;\r\n        stud = StudentStruct(stu, name);\r\n    }\r\n\r\n    function assignTeacher (address _teacher) {\r\n        teacher = _teacher;\r\n    }\r\n\r\n    function setGPA(uint _gpa) {\r\n        //todo limit who can set to teacher\r\n        gpa = _gpa;\r\n        submitted = true;\r\n    }\r\n\r\n    function setGPAGoal (uint _gpa) {\r\n        //todo limit who can set to parent/owner\r\n       gpaGoal = _gpa;\r\n    }\r\n\r\n    function enroll(School school, string name) {\r\n        //todo limit who can set to parent/owner\r\n        school.registerReportCard( name, this);\r\n    }\r\n\r\n    function contribute() payable {\r\n        balances[msg.sender] += msg.value;\r\n    }\r\n\r\n    function getBalance(address ad) returns (uint ret) {\r\n        //todo limit who can set to contributor\r\n        return balances[ad];\r\n    }\r\n\r\n    function getReportCardBalance() returns (uint ret) {\r\n        //todo limit who can set to parent/owner/student\r\n        return this.balance;\r\n    }\r\n\r\n\r\n    function getGPA() returns (uint ret) {\r\n        //todo limit who can set to parent/owner/student\r\n        return gpa;\r\n    }\r\n\r\n    function getGPAGoal() returns (uint ret) {\r\n        //todo limit who can set to parent/owner/student\r\n        return gpaGoal;\r\n    }\r\n\r\n    function getStudentName() returns (string ret) {\r\n      return stud.studentName;\r\n    }\r\n\r\n    function getStudentAddress() returns (address ret) {\r\n      return stud.student;\r\n    }\r\n\r\n    function getReward () {\r\n        //todo limit who can set to parent/owner/student\r\n        if ((gpa >= gpaGoal) && (submitted)) {\r\n            if (!stud.student.send( this.balance )) {\r\n                throw;\r\n            }\r\n            RewardDisbursement(\"Award sent\");\r\n            return;\r\n        }\r\n        if ((gpa < gpaGoal) && (submitted)) {\r\n            giveRefund;\r\n            return;\r\n        }\r\n    }\r\n\r\n    function giveRefund () {\r\n        if ((gpa < gpaGoal) && (submitted)) {\r\n            //giveRefund;\r\n            for (var index = 0; index < numContributors; index++) {\r\n                if (!contributors[index].send( balances[contributors[index]] )) {\r\n                throw;\r\n            }\r\n\r\n            }\r\n            return;\r\n        }\r\n\r\n    }\r\n\r\n}",
  "sourcePath": "/Users/antonioslaaf/DAPPS/reportcard_pjs_wpbc/contracts/ReportCard.sol",
  "compiler": {
    "name": "solc",
    "version": "0.4.18+commit.9cf6e910.Emscripten.clang"
  },
  "schemaVersion": "1.0.1",
  "updatedAt": "2017-12-11T05:04:09.232Z"
}