{
  "contractName": "School",
  "abi": [
    {
      "constant": true,
      "inputs": [
        {
          "name": "rca",
          "type": "address"
        }
      ],
      "name": "getStudentNumber",
      "outputs": [
        {
          "name": "",
          "type": "uint256"
        }
      ],
      "payable": false,
      "stateMutability": "view",
      "type": "function"
    },
    {
      "constant": false,
      "inputs": [
        {
          "name": "ta",
          "type": "address"
        }
      ],
      "name": "setTeacher",
      "outputs": [],
      "payable": false,
      "stateMutability": "nonpayable",
      "type": "function"
    },
    {
      "constant": true,
      "inputs": [
        {
          "name": "number",
          "type": "uint256"
        }
      ],
      "name": "getStudentNameById",
      "outputs": [
        {
          "name": "",
          "type": "string"
        }
      ],
      "payable": false,
      "stateMutability": "view",
      "type": "function"
    },
    {
      "constant": true,
      "inputs": [
        {
          "name": "number",
          "type": "uint256"
        }
      ],
      "name": "getStudentInfoById",
      "outputs": [
        {
          "name": "",
          "type": "string"
        },
        {
          "name": "",
          "type": "address"
        }
      ],
      "payable": false,
      "stateMutability": "view",
      "type": "function"
    },
    {
      "constant": false,
      "inputs": [
        {
          "name": "rca",
          "type": "address"
        },
        {
          "name": "num",
          "type": "uint256"
        }
      ],
      "name": "listGrades",
      "outputs": [
        {
          "name": "gr",
          "type": "uint256"
        },
        {
          "name": "subject",
          "type": "string"
        }
      ],
      "payable": false,
      "stateMutability": "nonpayable",
      "type": "function"
    },
    {
      "constant": true,
      "inputs": [],
      "name": "getSchoolName",
      "outputs": [
        {
          "name": "",
          "type": "bytes32"
        }
      ],
      "payable": false,
      "stateMutability": "view",
      "type": "function"
    },
    {
      "constant": false,
      "inputs": [
        {
          "name": "rca",
          "type": "address"
        },
        {
          "name": "subject",
          "type": "string"
        }
      ],
      "name": "listGrade",
      "outputs": [
        {
          "name": "ret",
          "type": "uint256"
        }
      ],
      "payable": false,
      "stateMutability": "nonpayable",
      "type": "function"
    },
    {
      "constant": false,
      "inputs": [
        {
          "name": "rca",
          "type": "address"
        }
      ],
      "name": "calculateGPA",
      "outputs": [
        {
          "name": "ret",
          "type": "uint256"
        }
      ],
      "payable": false,
      "stateMutability": "nonpayable",
      "type": "function"
    },
    {
      "constant": false,
      "inputs": [
        {
          "name": "rca",
          "type": "address"
        },
        {
          "name": "subject",
          "type": "string"
        },
        {
          "name": "_grade",
          "type": "uint256"
        }
      ],
      "name": "enterGrades",
      "outputs": [],
      "payable": false,
      "stateMutability": "nonpayable",
      "type": "function"
    },
    {
      "constant": false,
      "inputs": [
        {
          "name": "rc",
          "type": "address"
        }
      ],
      "name": "registerTeacher",
      "outputs": [],
      "payable": false,
      "stateMutability": "nonpayable",
      "type": "function"
    },
    {
      "constant": false,
      "inputs": [
        {
          "name": "name",
          "type": "string"
        },
        {
          "name": "rc",
          "type": "address"
        }
      ],
      "name": "registerReportCard",
      "outputs": [],
      "payable": false,
      "stateMutability": "nonpayable",
      "type": "function"
    },
    {
      "constant": true,
      "inputs": [],
      "name": "teacher",
      "outputs": [
        {
          "name": "",
          "type": "address"
        }
      ],
      "payable": false,
      "stateMutability": "view",
      "type": "function"
    },
    {
      "constant": true,
      "inputs": [
        {
          "name": "rca",
          "type": "address"
        }
      ],
      "name": "getStudentNameByAddress",
      "outputs": [
        {
          "name": "",
          "type": "string"
        }
      ],
      "payable": false,
      "stateMutability": "view",
      "type": "function"
    },
    {
      "constant": false,
      "inputs": [],
      "name": "getNumberOfReportCards",
      "outputs": [
        {
          "name": "ret",
          "type": "uint256"
        }
      ],
      "payable": false,
      "stateMutability": "nonpayable",
      "type": "function"
    },
    {
      "constant": false,
      "inputs": [
        {
          "name": "rc",
          "type": "address"
        }
      ],
      "name": "submitReportCard",
      "outputs": [],
      "payable": false,
      "stateMutability": "nonpayable",
      "type": "function"
    },
    {
      "constant": true,
      "inputs": [],
      "name": "schoolName",
      "outputs": [
        {
          "name": "",
          "type": "bytes32"
        }
      ],
      "payable": false,
      "stateMutability": "view",
      "type": "function"
    },
    {
      "constant": false,
      "inputs": [
        {
          "name": "rca",
          "type": "address"
        }
      ],
      "name": "getNumberOfGrades",
      "outputs": [
        {
          "name": "ret",
          "type": "uint256"
        }
      ],
      "payable": false,
      "stateMutability": "nonpayable",
      "type": "function"
    },
    {
      "inputs": [
        {
          "name": "name",
          "type": "bytes32"
        }
      ],
      "payable": true,
      "stateMutability": "payable",
      "type": "constructor"
    },
    {
      "anonymous": false,
      "inputs": [
        {
          "indexed": false,
          "name": "gs",
          "type": "string"
        }
      ],
      "name": "GradesSubmitted",
      "type": "event"
    }
  ],
  "bytecode": "0x606060405260405160208061194c833981016040528080519060200190919050508060008160001916905550506119118061003b6000396000f3006060604052600436106100f1576000357c0100000000000000000000000000000000000000000000000000000000900463ffffffff1680630fcd7316146100f6578063176366c4146101435780632b81bd8d1461017c5780632d17db921461021857806331911c89146102e75780634fc555c3146103a95780635a029723146103da5780636117cbb01461046a57806375d2c118146104b75780637cb458811461053c578063ae0eb83c14610575578063b46bff89146105f1578063c87b387214610646578063d1486ff2146106f8578063d1e5e48914610721578063d2619fe01461075a578063d59933491461078b575b600080fd5b341561010157600080fd5b61012d600480803573ffffffffffffffffffffffffffffffffffffffff169060200190919050506107d8565b6040518082815260200191505060405180910390f35b341561014e57600080fd5b61017a600480803573ffffffffffffffffffffffffffffffffffffffff16906020019091905050610821565b005b341561018757600080fd5b61019d6004808035906020019091905050610865565b6040518080602001828103825283818151815260200191508051906020019080838360005b838110156101dd5780820151818401526020810190506101c2565b50505050905090810190601f16801561020a5780820380516001836020036101000a031916815260200191505b509250505060405180910390f35b341561022357600080fd5b6102396004808035906020019091905050610923565b60405180806020018373ffffffffffffffffffffffffffffffffffffffff1673ffffffffffffffffffffffffffffffffffffffff168152602001828103825284818151815260200191508051906020019080838360005b838110156102ab578082015181840152602081019050610290565b50505050905090810190601f1680156102d85780820380516001836020036101000a031916815260200191505b50935050505060405180910390f35b34156102f257600080fd5b610327600480803573ffffffffffffffffffffffffffffffffffffffff16906020019091908035906020019091905050610a1f565b6040518083815260200180602001828103825283818151815260200191508051906020019080838360005b8381101561036d578082015181840152602081019050610352565b50505050905090810190601f16801561039a5780820380516001836020036101000a031916815260200191505b50935050505060405180910390f35b34156103b457600080fd5b6103bc610c02565b60405180826000191660001916815260200191505060405180910390f35b34156103e557600080fd5b610454600480803573ffffffffffffffffffffffffffffffffffffffff1690602001909190803590602001908201803590602001908080601f01602080910402602001604051908101604052809392919081815260200183838082843782019150505050505091905050610c0b565b6040518082815260200191505060405180910390f35b341561047557600080fd5b6104a1600480803573ffffffffffffffffffffffffffffffffffffffff16906020019091905050610cd4565b6040518082815260200191505060405180910390f35b34156104c257600080fd5b61053a600480803573ffffffffffffffffffffffffffffffffffffffff1690602001909190803590602001908201803590602001908080601f01602080910402602001604051908101604052809392919081815260200183838082843782019150505050505091908035906020019091905050610f40565b005b341561054757600080fd5b610573600480803573ffffffffffffffffffffffffffffffffffffffff1690602001909190505061115f565b005b341561058057600080fd5b6105ef600480803590602001908201803590602001908080601f0160208091040260200160405190810160405280939291908181526020018383808284378201915050505050509190803573ffffffffffffffffffffffffffffffffffffffff16906020019091905050611210565b005b34156105fc57600080fd5b610604611422565b604051808273ffffffffffffffffffffffffffffffffffffffff1673ffffffffffffffffffffffffffffffffffffffff16815260200191505060405180910390f35b341561065157600080fd5b61067d600480803573ffffffffffffffffffffffffffffffffffffffff16906020019091905050611448565b6040518080602001828103825283818151815260200191508051906020019080838360005b838110156106bd5780820151818401526020810190506106a2565b50505050905090810190601f1680156106ea5780820380516001836020036101000a031916815260200191505b509250505060405180910390f35b341561070357600080fd5b61070b611545565b6040518082815260200191505060405180910390f35b341561072c57600080fd5b610758600480803573ffffffffffffffffffffffffffffffffffffffff1690602001909190505061154f565b005b341561076557600080fd5b61076d611644565b60405180826000191660001916815260200191505060405180910390f35b341561079657600080fd5b6107c2600480803573ffffffffffffffffffffffffffffffffffffffff1690602001909190505061164a565b6040518082815260200191505060405180910390f35b6000600560008373ffffffffffffffffffffffffffffffffffffffff1673ffffffffffffffffffffffffffffffffffffffff168152602001908152602001600020549050919050565b80600160006101000a81548173ffffffffffffffffffffffffffffffffffffffff021916908373ffffffffffffffffffffffffffffffffffffffff16021790555050565b61086d6116ac565b600460008381526020019081526020016000206001018054600181600116156101000203166002900480601f0160208091040260200160405190810160405280929190818152602001828054600181600116156101000203166002900480156109175780601f106108ec57610100808354040283529160200191610917565b820191906000526020600020905b8154815290600101906020018083116108fa57829003601f168201915b50505050509050919050565b61092b6116ac565b6000600460008481526020019081526020016000206001016004600085815260200190815260200160002060000160009054906101000a900473ffffffffffffffffffffffffffffffffffffffff16818054600181600116156101000203166002900480601f016020809104026020016040519081016040528092919081815260200182805460018160011615610100020316600290048015610a0f5780601f106109e457610100808354040283529160200191610a0f565b820191906000526020600020905b8154815290600101906020018083116109f257829003601f168201915b5050505050915091509150915091565b6000610a296116ac565b600060046000600560008873ffffffffffffffffffffffffffffffffffffffff1673ffffffffffffffffffffffffffffffffffffffff16815260200190815260200160002054815260200190815260200160002060020184815481101515610a8d57fe5b90600052602060002090018054600181600116156101000203166002900480601f016020809104026020016040519081016040528092919081815260200182805460018160011615610100020316600290048015610b2c5780601f10610b0157610100808354040283529160200191610b2c565b820191906000526020600020905b815481529060010190602001808311610b0f57829003601f168201915b5050505050915060046000600560008873ffffffffffffffffffffffffffffffffffffffff1673ffffffffffffffffffffffffffffffffffffffff168152602001908152602001600020548152602001908152602001600020600301826040518082805190602001908083835b602083101515610bbe5780518252602082019150602081019050602083039250610b99565b6001836020036101000a0380198251168184511680821785525050505050509050019150509081526020016040518091039020549050808292509250509250929050565b60008054905090565b600060046000600560008673ffffffffffffffffffffffffffffffffffffffff1673ffffffffffffffffffffffffffffffffffffffff168152602001908152602001600020548152602001908152602001600020600301826040518082805190602001908083835b602083101515610c985780518252602082019150602081019050602083039250610c73565b6001836020036101000a038019825116818451168082178552505050505050905001915050908152602001604051809103902054905092915050565b6000610cde6116ac565b600080600080600060046000600560008b73ffffffffffffffffffffffffffffffffffffffff1673ffffffffffffffffffffffffffffffffffffffff168152602001908152602001600020548152602001908152602001600020600201805490509250600090505b60018303811015610f2f5760046000600560008b73ffffffffffffffffffffffffffffffffffffffff1673ffffffffffffffffffffffffffffffffffffffff16815260200190815260200160002054815260200190815260200160002060020181815481101515610db357fe5b90600052602060002090018054600181600116156101000203166002900480601f016020809104026020016040519081016040528092919081815260200182805460018160011615610100020316600290048015610e525780601f10610e2757610100808354040283529160200191610e52565b820191906000526020600020905b815481529060010190602001808311610e3557829003601f168201915b5050505050955060046000600560008b73ffffffffffffffffffffffffffffffffffffffff1673ffffffffffffffffffffffffffffffffffffffff168152602001908152602001600020548152602001908152602001600020600301866040518082805190602001908083835b602083101515610ee45780518252602082019150602081019050602083039250610ebf565b6001836020036101000a038019825116818451168082178552505050505050905001915050908152602001604051809103902054945060648502840193508080600101915050610d46565b839150819650505050505050919050565b600060046000600560008773ffffffffffffffffffffffffffffffffffffffff1673ffffffffffffffffffffffffffffffffffffffff168152602001908152602001600020548152602001908152602001600020600301836040518082805190602001908083835b602083101515610fcd5780518252602082019150602081019050602083039250610fa8565b6001836020036101000a03801982511681845116808217855250505050505090500191505090815260200160405180910390205414156110975760046000600560008673ffffffffffffffffffffffffffffffffffffffff1673ffffffffffffffffffffffffffffffffffffffff168152602001908152602001600020548152602001908152602001600020600201805480600101828161106e91906116c0565b9160005260206000209001600084909190915090805190602001906110949291906116ec565b50505b8060046000600560008773ffffffffffffffffffffffffffffffffffffffff1673ffffffffffffffffffffffffffffffffffffffff168152602001908152602001600020548152602001908152602001600020600301836040518082805190602001908083835b60208310151561112357805182526020820191506020810190506020830392506110fe565b6001836020036101000a038019825116818451168082178552505050505050905001915050908152602001604051809103902081905550505050565b8073ffffffffffffffffffffffffffffffffffffffff166370f409e1826040518263ffffffff167c0100000000000000000000000000000000000000000000000000000000028152600401808273ffffffffffffffffffffffffffffffffffffffff1673ffffffffffffffffffffffffffffffffffffffff168152602001915050600060405180830381600087803b15156111f957600080fd5b6102c65a03f1151561120a57600080fd5b50505050565b6000600260008154809291906001019190505590506060604051908101604052808373ffffffffffffffffffffffffffffffffffffffff1681526020018481526020016006805480602002602001604051908101604052809291908181526020016000905b8282101561133257838290600052602060002090018054600181600116156101000203166002900480601f01602080910402602001604051908101604052809291908181526020018280546001816001161561010002031660029004801561131e5780601f106112f35761010080835404028352916020019161131e565b820191906000526020600020905b81548152906001019060200180831161130157829003601f168201915b505050505081526020019060010190611275565b505050508152506004600083815260200190815260200160002060008201518160000160006101000a81548173ffffffffffffffffffffffffffffffffffffffff021916908373ffffffffffffffffffffffffffffffffffffffff16021790555060208201518160010190805190602001906113af92919061176c565b5060408201518160020190805190602001906113cc9291906117ec565b5090505080600560008473ffffffffffffffffffffffffffffffffffffffff1673ffffffffffffffffffffffffffffffffffffffff1681526020019081526020016000208190555061141d8261115f565b505050565b600160009054906101000a900473ffffffffffffffffffffffffffffffffffffffff1681565b6114506116ac565b60046000600560008573ffffffffffffffffffffffffffffffffffffffff1673ffffffffffffffffffffffffffffffffffffffff1681526020019081526020016000205481526020019081526020016000206001018054600181600116156101000203166002900480601f0160208091040260200160405190810160405280929190818152602001828054600181600116156101000203166002900480156115395780601f1061150e57610100808354040283529160200191611539565b820191906000526020600020905b81548152906001019060200180831161151c57829003601f168201915b50505050509050919050565b6000600254905090565b7f67bf02f1f1be5404803027fd1eb3361cf7dcc467536f0aab5a6ba6013dd926b160405180806020018281038252600f8152602001807f4772616465735375626d6974746564000000000000000000000000000000000081525060200191505060405180910390a18073ffffffffffffffffffffffffffffffffffffffff166371b6b6906115dc83610cd4565b6040518263ffffffff167c010000000000000000000000000000000000000000000000000000000002815260040180828152602001915050600060405180830381600087803b151561162d57600080fd5b6102c65a03f1151561163e57600080fd5b50505050565b60005481565b600060046000600560008573ffffffffffffffffffffffffffffffffffffffff1673ffffffffffffffffffffffffffffffffffffffff168152602001908152602001600020548152602001908152602001600020600201805490509050919050565b602060405190810160405280600081525090565b8154818355818115116116e7578183600052602060002091820191016116e6919061184c565b5b505050565b828054600181600116156101000203166002900490600052602060002090601f016020900481019282601f1061172d57805160ff191683800117855561175b565b8280016001018555821561175b579182015b8281111561175a57825182559160200191906001019061173f565b5b5090506117689190611878565b5090565b828054600181600116156101000203166002900490600052602060002090601f016020900481019282601f106117ad57805160ff19168380011785556117db565b828001600101855582156117db579182015b828111156117da5782518255916020019190600101906117bf565b5b5090506117e89190611878565b5090565b82805482825590600052602060002090810192821561183b579160200282015b8281111561183a57825182908051906020019061182a92919061176c565b509160200191906001019061180c565b5b509050611848919061184c565b5090565b61187591905b808211156118715760008181611868919061189d565b50600101611852565b5090565b90565b61189a91905b8082111561189657600081600090555060010161187e565b5090565b90565b50805460018160011615610100020316600290046000825580601f106118c357506118e2565b601f0160209004906000526020600020908101906118e19190611878565b5b505600a165627a7a72305820838c5ba28bdb0d37a6a3e5d32a2dde712f1b640e04d7bcfe14e18a282bbb2daa0029",
  "source": "pragma solidity ^0.4.2;\r\nimport \"./ReportCard.sol\";\r\ncontract School {\r\n    bytes32 public schoolName ;\r\n\r\n   event GradesSubmitted(string gs );\r\n\r\n    //todo change to multiple teachers\r\n    //As is this is more of a school class contract\r\n    //Add semester designation\r\n\r\n    address public teacher;\r\n    uint numReportCards;\r\n\r\n    mapping(address => uint) reportCard; //todo remove\r\n\r\n    mapping(uint => ReportCardStruct) idReportCardMap;\r\n    mapping(address => uint) addressReportCardMap;\r\n\r\n    function School (bytes32 name) payable {\r\n        schoolName = name;\r\n    }\r\n\r\n    struct ReportCardStruct {\r\n        address reportCardAddress;                          //address of Report Card Contract\r\n        string studentName;\r\n        string[] subjectList;\r\n        mapping(string => uint) subjectGradeMapping;       //grades  of student\r\n    }\r\n\r\n    string[] emptySubjectList;\r\n\r\n    function registerReportCard( string name, ReportCard rc) {\r\n        uint studentId = numReportCards++;\r\n        idReportCardMap[studentId] = ReportCardStruct(  rc, name, emptySubjectList);\r\n        addressReportCardMap[rc] = studentId;\r\n        registerTeacher(rc);\r\n    }\r\n\r\n    function registerTeacher(ReportCard rc) {\r\n        rc.assignTeacher(rc);\r\n    }\r\n\r\n\r\n    function getNumberOfReportCards() returns (uint ret) {\r\n        return numReportCards;\r\n    }\r\n\r\n     function enterGrades(address rca, string subject, uint _grade) {\r\n            if (idReportCardMap[addressReportCardMap[rca]].subjectGradeMapping[subject] == 0) {\r\n                idReportCardMap[addressReportCardMap[rca]].subjectList.push(subject);\r\n            }\r\n            idReportCardMap[addressReportCardMap[rca]].subjectGradeMapping[subject] = _grade;\r\n    }\r\n\r\n    function submitReportCard(ReportCard rc) {\r\n\r\n        GradesSubmitted(\"GradesSubmitted\");\r\n        rc.setGPA(calculateGPA(rc));\r\n\r\n    }\r\n\r\n    function calculateGPA(address rca) returns (uint ret) {\r\n        string memory subject;\r\n        uint grade;\r\n        uint score;\r\n        uint noof = idReportCardMap[addressReportCardMap[rca]].subjectList.length;\r\n        uint gpa;\r\n\r\n          for(uint i=0;i<noof-1;i++){\r\n                subject= idReportCardMap[addressReportCardMap[rca]].subjectList[i];\r\n                grade = idReportCardMap[addressReportCardMap[rca]].subjectGradeMapping[subject];\r\n                score += grade * 100;\r\n          }\r\n          gpa = score;\r\n        return (gpa);\r\n    }\r\n\r\n    function listGrade(address rca, string subject ) returns (uint ret) {\r\n        return uint(idReportCardMap[addressReportCardMap[rca]].subjectGradeMapping[subject]);\r\n    }\r\n\r\n    function listGrades(address rca, uint num) returns (uint gr, string subject) {\r\n      //string memory subject;\r\n      uint grade;\r\n      subject = idReportCardMap[addressReportCardMap[rca]].subjectList[num];\r\n      grade = idReportCardMap[addressReportCardMap[rca]].subjectGradeMapping[subject];\r\n      return ( grade, subject );\r\n    }\r\n\r\n    function getNumberOfGrades(address rca) returns (uint ret) {\r\n        return idReportCardMap[addressReportCardMap[rca]].subjectList.length;\r\n    }\r\n\r\n    function setTeacher(address ta){\r\n        teacher = ta;\r\n    }\r\n\r\n    function getSchoolName() constant returns (bytes32) {\r\n        return schoolName;\r\n    }\r\n\r\n    function getStudentNumber(address rca) constant returns(uint) {\r\n        return addressReportCardMap[rca];\r\n    }\r\n\r\n    function getStudentNameByAddress(address rca) constant returns(string){\r\n        return idReportCardMap[addressReportCardMap[rca]].studentName;\r\n    }\r\n\r\n    function getStudentNameById(uint number) constant returns(string){\r\n        return idReportCardMap[number].studentName;\r\n    }\r\n\r\n    function getStudentInfoById(uint number) constant returns(string, address) {\r\n      return (idReportCardMap[number].studentName, idReportCardMap[number].reportCardAddress);\r\n    }\r\n\r\n}",
  "sourcePath": "/Users/antonioslaaf/DAPPS/reportcard_pjs_wpbc/contracts/School.sol",
  "compiler": {
    "name": "solc",
    "version": "0.4.18+commit.9cf6e910.Emscripten.clang"
  },
  "schemaVersion": "1.0.1",
  "updatedAt": "2017-12-11T05:04:09.220Z"
}